:020000042001D9
:0A00000037410080EF00200201A04C
:10000C000100411106C622C40008232AB4FE09A02F
:10001C0097000000E7806013E5BF411106C622C4BB
:10002C00000871651305052097000000E7800002A9
:10003C00370501201305052F97000000E780400BC2
:10004C002244B24041018280011106CE22CC001024
:10005C002328A4FE3705030097000000E7808010DA
:10006C00032504FF81452326A4FE631CB50009A0CB
:10007C003705012013058531814597000000E78085
:10008C0080F83725F400130505408325C4FE33554D
:10009C00B5021306F5FF2324C4FE637CC50009A03A
:1000AC003705012013050532814597000000E780D4
:1000BC0080F5032584FE232AA4FEB7350110138591
:1000CC008501032684FE2322B4FEB285970000002E
:1000DC00E780C011032544FE21058D4597000000E3
:1000EC00E780C0106244F24005618280011106CEA7
:1000FC0022CC00108145232AB4FE4C412328A4FEB7
:10010C002326B4FE09A0032544FF8325C4FE232423
:10011C00A4FE6376B50209A0032504FF0C41032657
:10012C0084FEB2950385050097000000E7806010FF
:10013C00032584FE93051500232AB4FEE9B7624417
:10014C00F24005618280411106C622C400083705C1
:10015C00012013050531814597000000E780A0EAD6
:10016C00797106D622D400182326A4FE3725011057
:10017C009305C5032324A4FE2E852322B4FE9700E9
:10018C000000E780C0108325C4FE93C5F5FF6D8D7C
:10019C00232AA4FE832544FE2320A4FE2E8583253A
:1001AC0004FE97000000E7806004032584FE93059D
:1001BC0085032E85232EB4FC97000000E780200DCC
:1001CC008325C4FE4D8D2328A4FE8325C4FD232C3A
:1001DC00A4FC2E85832584FD97000000E780000198
:1001EC002254B25045618280011106CE22CC0010FF
:1001FC002326B4FE2328A4FEAA8501462324B4FE9C
:10020C00631CC50009A03705012013058534814501
:10021C0097000000E78020DF032584FE232AA4FE3C
:10022C008325C4FE0CC16244F24005618280011139
:10023C0006CE22CC00102309A4FE09A009A0373554
:10024C00011097000000E7808004232AA4FE0345D8
:10025C0074FF1375050881456314B50009A019A036
:10026C0009A0E9BF034524FFA309A4FEB73501107B
:10027C002326A4FE2E858325C4FE97000000E7806C
:10028C00E0F66244F24005618280011106CE22CC78
:10029C0000102328A4FEAA8501462326B4FE631C65
:1002AC00C50009A037050120130585348145970049
:1002BC000000E78040D50325C4FE232AA4FE084194
:0802CC006244F24005618280EA
:1002D4000E0001200068656C6C6F20776F726C648F
:1002E4002066726F6D205A656E0D0A00D9020120D6
:1002F400160000007265616368656420756E72653E
:1003040061636861626C6520636F6465F802012053
:1003140018000000600301201000000050030120B9
:10032400100000006361737420636175736573204A
:10033400706F696E74657220746F206265206E75CB
:100344006C6C0000280301201E000000696E7465B7
:10035400676572206F766572666C6F77646976691B
:0C03640073696F6E206279207A65726FF9
:0400000520010000D6
:00000001FF
